{
  "contractName": "Random",
  "abi": [
    {
      "constant": true,
      "inputs": [],
      "name": "gameID",
      "outputs": [
        {
          "name": "",
          "type": "uint256"
        }
      ],
      "payable": false,
      "stateMutability": "view",
      "type": "function",
      "signature": "0xc7dd4b4f"
    },
    {
      "constant": true,
      "inputs": [],
      "name": "finalNumber",
      "outputs": [
        {
          "name": "",
          "type": "uint256"
        }
      ],
      "payable": false,
      "stateMutability": "view",
      "type": "function",
      "signature": "0xdae58da8"
    },
    {
      "constant": true,
      "inputs": [
        {
          "name": "",
          "type": "uint256"
        }
      ],
      "name": "losowania",
      "outputs": [
        {
          "name": "id",
          "type": "uint256"
        },
        {
          "name": "liczba_players",
          "type": "uint256"
        },
        {
          "name": "aktywna",
          "type": "bool"
        },
        {
          "name": "playerNum",
          "type": "uint256"
        },
        {
          "name": "stawkaTotal",
          "type": "uint256"
        },
        {
          "name": "ostatniblok",
          "type": "uint256"
        },
        {
          "name": "stawka",
          "type": "uint256"
        },
        {
          "name": "rollAccept",
          "type": "bool"
        },
        {
          "name": "winner",
          "type": "address"
        }
      ],
      "payable": false,
      "stateMutability": "view",
      "type": "function",
      "signature": "0xfc9c58b7"
    },
    {
      "constant": false,
      "inputs": [
        {
          "name": "_liczba_players",
          "type": "uint256"
        },
        {
          "name": "_stawka",
          "type": "uint256"
        }
      ],
      "name": "addGame",
      "outputs": [],
      "payable": false,
      "stateMutability": "nonpayable",
      "type": "function",
      "signature": "0x8065d77e"
    },
    {
      "constant": false,
      "inputs": [
        {
          "name": "_gameID",
          "type": "uint256"
        }
      ],
      "name": "addPlayer",
      "outputs": [],
      "payable": true,
      "stateMutability": "payable",
      "type": "function",
      "signature": "0xec4a8b17"
    },
    {
      "constant": false,
      "inputs": [
        {
          "name": "_gameID",
          "type": "uint256"
        }
      ],
      "name": "roll",
      "outputs": [],
      "payable": true,
      "stateMutability": "payable",
      "type": "function",
      "signature": "0x1f7b4f30"
    }
  ],
  "bytecode": "0x608060405260008055600060015534801561001957600080fd5b506106de806100296000396000f3fe6080604052600436106100775763ffffffff7c01000000000000000000000000000000000000000000000000000000006000350416631f7b4f30811461007c5780638065d77e1461009b578063c7dd4b4f146100cb578063dae58da8146100f2578063ec4a8b1714610107578063fc9c58b714610124575b600080fd5b6100996004803603602081101561009257600080fd5b50356101a0565b005b3480156100a757600080fd5b50610099600480360360408110156100be57600080fd5b5080359060200135610323565b3480156100d757600080fd5b506100e0610403565b60408051918252519081900360200190f35b3480156100fe57600080fd5b506100e0610409565b6100996004803603602081101561011d57600080fd5b503561040f565b34801561013057600080fd5b5061014e6004803603602081101561014757600080fd5b5035610656565b60408051998a5260208a0198909852951515888801526060880194909452608087019290925260a086015260c0850152151560e0840152600160a060020a031661010083015251908190036101200190f35b6000818152600260205260409020600881015460ff16151560011461020f576040805160e560020a62461bcd02815260206004820152601a60248201527f477261206e6965206d61206b6f6d706c65747520677261637a79000000000000604482015290519081900360640190fd5b600181015460038201541461026e576040805160e560020a62461bcd02815260206004820152601460248201527f4272616b206b6f6d706c65747520677261637a79000000000000000000000000604482015290519081900360640190fd5b6006810154600382015490409081908181151561028757fe5b06600181815560009182526004850160205260408083209091015460058601549151600160a060020a0390911692839280156108fc02929091818181858888f193505050501580156102dd573d6000803e3d6000fd5b50600884018054600160a060020a039092166101000274ffffffffffffffffffffffffffffffffffffffff00199092169190911790555050600201805460ff1916905550565b60008054600190810180835560408051610120810182528281526020808201978852818301858152606083018781526080840188815260a0850189815260c086019a8b5260e086018a81526101008088018c8152998c5260029687905297909a20955186559a51978501979097559051918301805460ff199081169315159390931790555160038301559351600582015595516006870155935160078601559151600890940180549251929091169315159390931774ffffffffffffffffffffffffffffffffffffffff001916600160a060020a03909116909102179055565b60005481565b60015481565b600081815260026020526040902060038101546001909101541161047d576040805160e560020a62461bcd02815260206004820152601860248201527f4d616b73796d616c6e61206c69637a626120677261637a790000000000000000604482015290519081900360640190fd5b6000818152600260205260408120905b816003015481101561053b576000818152600483016020526040902060010154600160a060020a0316331415610533576040805160e560020a62461bcd02815260206004820152603060248201527f44616e7920677261637a206a657374206a75c5bc207a6172656a657374726f7760448201527f616e7920646f20726f7a677279776b6900000000000000000000000000000000606482015290519081900360840190fd5b60010161048d565b506007810154341015610598576040805160e560020a62461bcd02815260206004820152601e60248201527f5a61206d61c5826120776172746fc59bc487206f627374617769656e69610000604482015290519081900360640190fd5b600381018054600180820192839055830154909114156105b9574360068301555b6001826001015403826003015414156105dc5760088201805460ff191660011790555b604080516060810182528281523360208083019182523483850181815260009687526004880190925293909420915182555160018201805473ffffffffffffffffffffffffffffffffffffffff1916600160a060020a03909216919091179055915160029092019190915560059091018054909101905550565b60026020819052600091825260409091208054600182015492820154600383015460058401546006850154600786015460089096015494969560ff948516959394929391929091908116906101009004600160a060020a03168956fea165627a7a72305820424c574fcc6a299adc7f0c371b196e394fb991f4d3f0f9f83a8f4338ea1086130029",
  "source": "pragma solidity ^0.5.0;\r\n\r\ncontract Random {\r\n\r\n    uint public gameID = 0;\r\n    uint public finalNumber  = 0;\r\n    //struct do gracza w Losowaniu\r\n    struct Player{\r\n     uint id;\r\n     address payable adres;\r\n     uint256 stawka;\r\n    }\r\n    // struct do losowania\r\n    struct Losowanie {\r\n     uint id;\r\n     uint liczba_players;\r\n     bool aktywna;\r\n     uint playerNum;\r\n     mapping (uint => Player) players;\r\n     uint256 stawkaTotal;\r\n     uint256 ostatniblok;\r\n     uint stawka;\r\n     bool rollAccept;\r\n     address winner;\r\n    }\r\n    mapping (uint => Losowanie) public losowania;\r\n    // Dodawanie gry\r\n    function addGame (uint _liczba_players, uint _stawka) public {\r\n        gameID ++;\r\n        losowania[gameID] = Losowanie (gameID, _liczba_players, true, 0,0,0,_stawka,false,address(0));\r\n    }\r\n    // Dodawanie gracza\r\n    function addPlayer (uint _gameID) public payable {\r\n        // Sprawdzenie ilosci graczy\r\n        require(losowania[_gameID].liczba_players > losowania[_gameID].playerNum, \"Maksymalna liczba graczy\");\r\n        // Dodawanie gracza do gry\r\n        Losowanie storage l = losowania[_gameID];\r\n        for (uint i = 0; i<l.playerNum; i++)\r\n        {\r\n            require(l.players[i].adres!=msg.sender, \"Dany gracz jest już zarejestrowany do rozgrywki\");\r\n        }\r\n        require(msg.value>=l.stawka, \"Za mała wartość obstawienia\");\r\n        uint _playerNum = l.playerNum++;\r\n        if (l.playerNum==l.liczba_players){\r\n            l.ostatniblok = block.number;\r\n        }\r\n        if (l.playerNum==l.liczba_players-1){\r\n            l.rollAccept = true;\r\n        }\r\n        l.players[_playerNum] = Player (_playerNum, msg.sender, msg.value);\r\n        l.stawkaTotal += msg.value;\r\n    }\r\n    // Losowanie zwycięzcy\r\n    function roll (uint _gameID) public payable  {\r\n        Losowanie storage l = losowania[_gameID];\r\n        require(l.rollAccept==true, \"Gra nie ma kompletu graczy\");\r\n        require(l.playerNum==l.liczba_players, \"Brak kompletu graczy\");\r\n        bytes32 blockHash = blockhash(l.ostatniblok);\r\n        uint blockUnhashed = uint(blockHash);\r\n        finalNumber = blockUnhashed%l.playerNum;\r\n        address payable winner = l.players[finalNumber].adres;\r\n        winner.transfer(l.stawkaTotal);\r\n        l.winner = winner;\r\n        l.aktywna = false;\r\n        }\r\n\r\n}",
  "sourcePath": "C:/Magisterka/Hybryda/contracts/Random.sol",
  "compiler": {
    "name": "solc",
    "version": "0.5.0+commit.1d4f565a.Emscripten.clang"
  },
  "schemaVersion": "3.0.1",
  "updatedAt": "2020-02-14T09:40:33.360Z",
  "devdoc": {
    "methods": {}
  },
  "userdoc": {
    "methods": {}
  }
}